{
  "contractName": "Inbox",
  "abi": [
    {
      "inputs": [
        {
          "internalType": "string",
          "name": "initMessage",
          "type": "string"
        }
      ],
      "payable": false,
      "stateMutability": "nonpayable",
      "type": "constructor"
    },
    {
      "constant": true,
      "inputs": [],
      "name": "lazar",
      "outputs": [
        {
          "internalType": "int32",
          "name": "",
          "type": "int32"
        }
      ],
      "payable": false,
      "stateMutability": "view",
      "type": "function"
    },
    {
      "constant": true,
      "inputs": [],
      "name": "message",
      "outputs": [
        {
          "internalType": "string",
          "name": "",
          "type": "string"
        }
      ],
      "payable": false,
      "stateMutability": "view",
      "type": "function"
    },
    {
      "constant": false,
      "inputs": [],
      "name": "increment",
      "outputs": [],
      "payable": false,
      "stateMutability": "nonpayable",
      "type": "function"
    },
    {
      "constant": false,
      "inputs": [
        {
          "internalType": "string",
          "name": "newMessage",
          "type": "string"
        }
      ],
      "name": "setMessage",
      "outputs": [],
      "payable": false,
      "stateMutability": "nonpayable",
      "type": "function"
    }
  ],
  "bytecode": "0x608060405260008060006101000a81548163ffffffff021916908360030b63ffffffff16021790555034801561003457600080fd5b506040516106173803806106178339818101604052602081101561005757600080fd5b810190808051604051939291908464010000000082111561007757600080fd5b8382019150602082018581111561008d57600080fd5b82518660018202830111640100000000821117156100aa57600080fd5b8083526020830192505050908051906020019080838360005b838110156100de5780820151818401526020810190506100c3565b50505050905090810190601f16801561010b5780820380516001836020036101000a031916815260200191505b506040525050508060019080519060200190610128929190610170565b5033600060046101000a81548173ffffffffffffffffffffffffffffffffffffffff021916908373ffffffffffffffffffffffffffffffffffffffff16021790555050610215565b828054600181600116156101000203166002900490600052602060002090601f016020900481019282601f106101b157805160ff19168380011785556101df565b828001600101855582156101df579182015b828111156101de5782518255916020019190600101906101c3565b5b5090506101ec91906101f0565b5090565b61021291905b8082111561020e5760008160009055506001016101f6565b5090565b90565b6103f3806102246000396000f3fe608060405234801561001057600080fd5b506004361061004c5760003560e01c8063368b87721461005157806339af6bd11461010c578063d09de08a14610130578063e21f37ce1461013a575b600080fd5b61010a6004803603602081101561006757600080fd5b810190808035906020019064010000000081111561008457600080fd5b82018360208201111561009657600080fd5b803590602001918460018302840111640100000000831117156100b857600080fd5b91908080601f016020809104026020016040519081016040528093929190818152602001838380828437600081840152601f19601f8201169050808301925050505050505091929192905050506101bd565b005b6101146101d7565b604051808260030b60030b815260200191505060405180910390f35b6101386101e9565b005b61014261027b565b6040518080602001828103825283818151815260200191508051906020019080838360005b83811015610182578082015181840152602081019050610167565b50505050905090810190601f1680156101af5780820380516001836020036101000a031916815260200191505b509250505060405180910390f35b80600190805190602001906101d3929190610319565b5050565b6000809054906101000a900460030b81565b600060049054906101000a900473ffffffffffffffffffffffffffffffffffffffff1673ffffffffffffffffffffffffffffffffffffffff163373ffffffffffffffffffffffffffffffffffffffff161461024357600080fd5b60016000808282829054906101000a900460030b0192506101000a81548163ffffffff021916908360030b63ffffffff160217905550565b60018054600181600116156101000203166002900480601f0160208091040260200160405190810160405280929190818152602001828054600181600116156101000203166002900480156103115780601f106102e657610100808354040283529160200191610311565b820191906000526020600020905b8154815290600101906020018083116102f457829003601f168201915b505050505081565b828054600181600116156101000203166002900490600052602060002090601f016020900481019282601f1061035a57805160ff1916838001178555610388565b82800160010185558215610388579182015b8281111561038757825182559160200191906001019061036c565b5b5090506103959190610399565b5090565b6103bb91905b808211156103b757600081600090555060010161039f565b5090565b9056fea265627a7a723158200942c9b721fa3d6640f604ab53d510344c4a2558b374ac5ea6a23b97fc25ceba64736f6c63430005100032",
  "source": "// SPDX-License-Identifier: MIT\npragma solidity >=0.5.16;\n\ncontract Inbox{\n    \n    int32 public lazar = 0;    \n    address private owner;\n    string public message;\n    \n    constructor(string memory initMessage) public {\n        message = initMessage;\n        owner = msg.sender;\n    }\n    \n    modifier onlyOwner() {\n     require(msg.sender == owner);\n        _;\n    }\n\n\n    function increment() public onlyOwner  {\n      lazar += 1;\n    }\n    \n    function setMessage(string memory newMessage) public{\n        message = newMessage;\n    } \n\n\n\n}",
  "sourcePath": "E:/GIT PROJECTS/studious-octo-memory-main/contracts/Inbox.sol",
  "compiler": {
    "name": "solc",
    "version": "0.5.16+commit.9c3226ce.Emscripten.clang"
  },
  "schemaVersion": "3.3.1",
  "updatedAt": "2020-10-30T14:25:20.022Z",
  "networkType": "ethereum",
  "devdoc": {
    "methods": {}
  },
  "userdoc": {
    "methods": {}
  }
}