{
  "contractName": "Inbox",
  "abi": [
    {
      "inputs": [
        {
          "internalType": "string",
          "name": "initMessage",
          "type": "string"
        }
      ],
      "payable": false,
      "stateMutability": "nonpayable",
      "type": "constructor"
    },
    {
      "constant": true,
      "inputs": [],
      "name": "a",
      "outputs": [
        {
          "internalType": "string",
          "name": "",
          "type": "string"
        }
      ],
      "payable": false,
      "stateMutability": "view",
      "type": "function"
    },
    {
      "constant": true,
      "inputs": [],
      "name": "lazar",
      "outputs": [
        {
          "internalType": "int32",
          "name": "",
          "type": "int32"
        }
      ],
      "payable": false,
      "stateMutability": "view",
      "type": "function"
    },
    {
      "constant": true,
      "inputs": [],
      "name": "message",
      "outputs": [
        {
          "internalType": "string",
          "name": "",
          "type": "string"
        }
      ],
      "payable": false,
      "stateMutability": "view",
      "type": "function"
    },
    {
      "constant": false,
      "inputs": [],
      "name": "increment",
      "outputs": [],
      "payable": false,
      "stateMutability": "nonpayable",
      "type": "function"
    },
    {
      "constant": false,
      "inputs": [
        {
          "internalType": "string",
          "name": "newMessage",
          "type": "string"
        }
      ],
      "name": "setMessage",
      "outputs": [],
      "payable": false,
      "stateMutability": "nonpayable",
      "type": "function"
    }
  ],
  "bytecode": "0x608060405260008060006101000a81548163ffffffff021916908360030b63ffffffff1602179055506040518060400160405280600381526020017f6173640000000000000000000000000000000000000000000000000000000000815250600290805190602001906100739291906101bc565b5034801561008057600080fd5b5060405161078f38038061078f833981810160405260208110156100a357600080fd5b81019080805160405193929190846401000000008211156100c357600080fd5b838201915060208201858111156100d957600080fd5b82518660018202830111640100000000821117156100f657600080fd5b8083526020830192505050908051906020019080838360005b8381101561012a57808201518184015260208101905061010f565b50505050905090810190601f1680156101575780820380516001836020036101000a031916815260200191505b5060405250505080600190805190602001906101749291906101bc565b5033600060046101000a81548173ffffffffffffffffffffffffffffffffffffffff021916908373ffffffffffffffffffffffffffffffffffffffff16021790555050610261565b828054600181600116156101000203166002900490600052602060002090601f016020900481019282601f106101fd57805160ff191683800117855561022b565b8280016001018555821561022b579182015b8281111561022a57825182559160200191906001019061020f565b5b509050610238919061023c565b5090565b61025e91905b8082111561025a576000816000905550600101610242565b5090565b90565b61051f806102706000396000f3fe608060405234801561001057600080fd5b50600436106100575760003560e01c80630dbe671f1461005c578063368b8772146100df57806339af6bd11461019a578063d09de08a146101be578063e21f37ce146101c8575b600080fd5b61006461024b565b6040518080602001828103825283818151815260200191508051906020019080838360005b838110156100a4578082015181840152602081019050610089565b50505050905090810190601f1680156100d15780820380516001836020036101000a031916815260200191505b509250505060405180910390f35b610198600480360360208110156100f557600080fd5b810190808035906020019064010000000081111561011257600080fd5b82018360208201111561012457600080fd5b8035906020019184600183028401116401000000008311171561014657600080fd5b91908080601f016020809104026020016040519081016040528093929190818152602001838380828437600081840152601f19601f8201169050808301925050505050505091929192905050506102e9565b005b6101a2610303565b604051808260030b60030b815260200191505060405180910390f35b6101c6610315565b005b6101d06103a7565b6040518080602001828103825283818151815260200191508051906020019080838360005b838110156102105780820151818401526020810190506101f5565b50505050905090810190601f16801561023d5780820380516001836020036101000a031916815260200191505b509250505060405180910390f35b60028054600181600116156101000203166002900480601f0160208091040260200160405190810160405280929190818152602001828054600181600116156101000203166002900480156102e15780601f106102b6576101008083540402835291602001916102e1565b820191906000526020600020905b8154815290600101906020018083116102c457829003601f168201915b505050505081565b80600190805190602001906102ff929190610445565b5050565b6000809054906101000a900460030b81565b600060049054906101000a900473ffffffffffffffffffffffffffffffffffffffff1673ffffffffffffffffffffffffffffffffffffffff163373ffffffffffffffffffffffffffffffffffffffff161461036f57600080fd5b60016000808282829054906101000a900460030b0192506101000a81548163ffffffff021916908360030b63ffffffff160217905550565b60018054600181600116156101000203166002900480601f01602080910402602001604051908101604052809291908181526020018280546001816001161561010002031660029004801561043d5780601f106104125761010080835404028352916020019161043d565b820191906000526020600020905b81548152906001019060200180831161042057829003601f168201915b505050505081565b828054600181600116156101000203166002900490600052602060002090601f016020900481019282601f1061048657805160ff19168380011785556104b4565b828001600101855582156104b4579182015b828111156104b3578251825591602001919060010190610498565b5b5090506104c191906104c5565b5090565b6104e791905b808211156104e35760008160009055506001016104cb565b5090565b9056fea265627a7a7231582052071e4a03b3cc0fba71b57546ff81a07599a7c855d35e436cf35eb1b25d33bd64736f6c63430005100032",
  "source": "// SPDX-License-Identifier: MIT\npragma solidity >=0.5.16;\n\ncontract Inbox{\n    \n    int32 public lazar = 0;    \n    address private owner;\n    string public message;\n    string public a = \"asd\";\n\n    constructor(string memory initMessage) public {\n        message = initMessage;\n        owner = msg.sender;\n    }\n    \n    modifier onlyOwner() {\n     require(msg.sender == owner);\n        _;\n    }\n    function increment() public onlyOwner  {\n      lazar += 1;\n    }\n    \n    function setMessage(string memory newMessage) public{\n        message = newMessage;\n    } \n\n\n\n}",
  "sourcePath": "/home/lazar/projects/eth_first/contracts/Inbox.sol",
  "compiler": {
    "name": "solc",
    "version": "0.5.16+commit.9c3226ce.Emscripten.clang"
  },
  "schemaVersion": "3.3.1",
  "updatedAt": "2020-11-05T13:53:17.390Z",
  "networkType": "ethereum",
  "devdoc": {
    "methods": {}
  },
  "userdoc": {
    "methods": {}
  }
}